{
  "_format": "hh-sol-artifact-1",
  "contractName": "PrivID",
  "sourceName": "contracts/PrivID.sol",
  "abi": [
    {
      "inputs": [
        {
          "internalType": "externalEuint8",
          "name": "allowedRegionHandle",
          "type": "bytes32"
        },
        {
          "internalType": "bytes",
          "name": "proof",
          "type": "bytes"
        }
      ],
      "name": "computeAccessFlagsEnc",
      "outputs": [],
      "stateMutability": "nonpayable",
      "type": "function"
    },
    {
      "inputs": [
        {
          "internalType": "address",
          "name": "user",
          "type": "address"
        },
        {
          "internalType": "externalEuint8",
          "name": "allowedRegionHandle",
          "type": "bytes32"
        },
        {
          "internalType": "bytes",
          "name": "proof",
          "type": "bytes"
        }
      ],
      "name": "getAccessFlagsEnc",
      "outputs": [
        {
          "internalType": "ebool",
          "name": "accessA",
          "type": "bytes32"
        },
        {
          "internalType": "ebool",
          "name": "accessB",
          "type": "bytes32"
        }
      ],
      "stateMutability": "nonpayable",
      "type": "function"
    },
    {
      "inputs": [],
      "name": "getMyAttributes",
      "outputs": [
        {
          "internalType": "euint8",
          "name": "",
          "type": "bytes32"
        },
        {
          "internalType": "euint8",
          "name": "",
          "type": "bytes32"
        },
        {
          "internalType": "ebool",
          "name": "",
          "type": "bytes32"
        }
      ],
      "stateMutability": "view",
      "type": "function"
    },
    {
      "inputs": [],
      "name": "getMyLastFlagsEnc",
      "outputs": [
        {
          "internalType": "ebool",
          "name": "accessA",
          "type": "bytes32"
        },
        {
          "internalType": "ebool",
          "name": "accessB",
          "type": "bytes32"
        }
      ],
      "stateMutability": "view",
      "type": "function"
    },
    {
      "inputs": [
        {
          "internalType": "address",
          "name": "",
          "type": "address"
        }
      ],
      "name": "hasData",
      "outputs": [
        {
          "internalType": "bool",
          "name": "",
          "type": "bool"
        }
      ],
      "stateMutability": "view",
      "type": "function"
    },
    {
      "inputs": [
        {
          "internalType": "address",
          "name": "user",
          "type": "address"
        }
      ],
      "name": "isAdultEnc",
      "outputs": [
        {
          "internalType": "ebool",
          "name": "",
          "type": "bytes32"
        }
      ],
      "stateMutability": "nonpayable",
      "type": "function"
    },
    {
      "inputs": [
        {
          "internalType": "address",
          "name": "user",
          "type": "address"
        },
        {
          "internalType": "externalEuint8",
          "name": "regionHandle",
          "type": "bytes32"
        },
        {
          "internalType": "bytes",
          "name": "proof",
          "type": "bytes"
        }
      ],
      "name": "isInRegionEnc",
      "outputs": [
        {
          "internalType": "ebool",
          "name": "",
          "type": "bytes32"
        }
      ],
      "stateMutability": "nonpayable",
      "type": "function"
    },
    {
      "inputs": [
        {
          "internalType": "address",
          "name": "user",
          "type": "address"
        }
      ],
      "name": "isKycPassedEnc",
      "outputs": [
        {
          "internalType": "ebool",
          "name": "",
          "type": "bytes32"
        }
      ],
      "stateMutability": "view",
      "type": "function"
    },
    {
      "inputs": [],
      "name": "protocolId",
      "outputs": [
        {
          "internalType": "uint256",
          "name": "",
          "type": "uint256"
        }
      ],
      "stateMutability": "pure",
      "type": "function"
    },
    {
      "inputs": [
        {
          "internalType": "externalEuint8",
          "name": "ageHandle",
          "type": "bytes32"
        },
        {
          "internalType": "externalEuint8",
          "name": "regionHandle",
          "type": "bytes32"
        },
        {
          "internalType": "externalEbool",
          "name": "kycHandle",
          "type": "bytes32"
        },
        {
          "internalType": "bytes",
          "name": "inputProof",
          "type": "bytes"
        }
      ],
      "name": "submitAttributes",
      "outputs": [],
      "stateMutability": "nonpayable",
      "type": "function"
    },
    {
      "inputs": [
        {
          "internalType": "externalEuint8",
          "name": "ageHandle",
          "type": "bytes32"
        },
        {
          "internalType": "externalEuint8",
          "name": "regionHandle",
          "type": "bytes32"
        },
        {
          "internalType": "externalEbool",
          "name": "kycHandle",
          "type": "bytes32"
        },
        {
          "internalType": "bytes",
          "name": "inputProof",
          "type": "bytes"
        }
      ],
      "name": "updateAttributes",
      "outputs": [],
      "stateMutability": "nonpayable",
      "type": "function"
    }
  ],
  "bytecode": "0x608060405234801561000f575f5ffd5b5061018a6100ae604080516080810182525f80825260208201819052918101829052606081019190915250604080516080810182527350157cffd6bbfa2dece204a89ec419c23ef5755d815273cd3ab3bd6bcc0c0bf3e27912a92043e817b1cf69602082015273a02cda4ca3a71d7c46997716f4283aa851c2881291810191909152731364cbbf2cdf5032c47d8226a6f6fbd2afcdacac606082015290565b80517f9e7b61f58c47dc699ac88507c4f5bb9f121c03808c5676a8078fe583e464970080546001600160a01b03199081166001600160a01b039384161790915560208301517f9e7b61f58c47dc699ac88507c4f5bb9f121c03808c5676a8078fe583e46497018054831691841691909117905560408301517f9e7b61f58c47dc699ac88507c4f5bb9f121c03808c5676a8078fe583e46497028054831691841691909117905560608301517f9e7b61f58c47dc699ac88507c4f5bb9f121c03808c5676a8078fe583e46497038054909216921691909117905550565b610e47806101975f395ff3fe608060405234801561000f575f5ffd5b50600436106100c3575f3560e01c8063a454d3ad1161007d578063d3c5a12911610058578063d3c5a129146101d6578063da1f12ab146101e9578063f0c0c15e146101f1575f5ffd5b8063a454d3ad14610173578063be1863ca14610186578063d062c58314610199575f5ffd5b806331e2fa5d116100ad57806331e2fa5d1461010d57806342c3b2c31461012e57806379b78a7a14610141575f5ffd5b80622c5c9e146100c7578063294bd099146100dc575b5f5ffd5b6100da6100d5366004610c67565b61021c565b005b335f90815260026020526040902080546001909101545b604080519283526020830191909152015b60405180910390f35b61012061011b366004610cca565b610381565b604051908152602001610104565b6100da61013c366004610d20565b6103f7565b61016361014f366004610d7c565b60016020525f908152604090205460ff1681565b6040519015158152602001610104565b610120610181366004610d7c565b61040b565b6100da610194366004610d20565b610444565b6101bb335f908152602081905260409020805460018201546002909201549092565b60408051938452602084019290925290820152606001610104565b6100f36101e4366004610cca565b6105f0565b612711610120565b6101206101ff366004610d7c565b6001600160a01b03165f9081526020819052604090206002015490565b335f9081526020818152604080832060019092529091205460ff166102875760405162461bcd60e51b815260206004820152600760248201527f4e4f5f4441544100000000000000000000000000000000000000000000000000604482015260640160405180910390fd5b5f61029e825f015461029960126106ac565b6106c1565b90505f826002015490505f6102e88787878080601f0160208091040260200160405190810160405280939291908181526020018383808284375f920191909152506106f692505050565b90505f6102f9856001015483610703565b90506103058484610731565b335f9081526002602052604090208181556001018290556103259061075f565b50335f908152600260205260409020600101546103419061075f565b50335f8181526002602052604090205461035a9161076e565b50335f818152600260205260409020600101546103769161076e565b505050505050505050565b5f5f6103c28585858080601f0160208091040260200160405190810160405280939291908181526020018383808284375f920191909152506106f692505050565b6001600160a01b0387165f9081526020819052604090206001810154919250906103ec9083610703565b979650505050505050565b6104048585858585610444565b5050505050565b6001600160a01b0381165f9081526020819052604081208161042d60126106ac565b905061043c825f0154826106c1565b949350505050565b5f6104848684848080601f0160208091040260200160405190810160405280939291908181526020018383808284375f920191909152506106f692505050565b90505f6104c68685858080601f0160208091040260200160405190810160405280939291908181526020018383808284375f920191909152506106f692505050565b90505f6105088686868080601f0160208091040260200160405190810160405280939291908181526020018383808284375f9201919091525061078092505050565b604080516060810182528581526020808201868152828401858152335f90815280845285812094518555915160018086019190915590516002850155808352938120805460ff191690941790935591909152549091506105679061075f565b50335f908152602081905260409020600101546105839061075f565b50335f9081526020819052604090206002015461059f9061075f565b50335f818152602081905260409020546105b89161076e565b50335f818152602081905260409020600101546105d49161076e565b50335f818152602081905260409020600201546103769161076e565b6001600160a01b0384165f9081526020819052604081208054829190829061061c9061029960126106ac565b90505f826002015490505f6106668989898080601f0160208091040260200160405190810160405280939291908181526020018383808284375f920191909152506106f692505050565b90505f610677856001015483610703565b90506106838484610731565b9650809550610692878c61076e565b5061069d868c61076e565b50505050505094509492505050565b5f6106bb8260ff16600261078c565b92915050565b5f826106d3576106d05f6106ac565b92505b816106e4576106e15f6106ac565b91505b6106ef83835f610841565b9392505050565b5f6106ef83836002610924565b5f82610715576107125f6106ac565b92505b81610726576107235f6106ac565b91505b6106ef83835f610a44565b5f82610743576107405f610ae1565b92505b81610754576107515f610ae1565b91505b6106ef83835f610afc565b5f61076a8230610b99565b5090565b5f6107798383610b99565b5090919050565b5f6106ef83835f610924565b7f9e7b61f58c47dc699ac88507c4f5bb9f121c03808c5676a8078fe583e464970154604051639cd07acb60e01b81525f917f9e7b61f58c47dc699ac88507c4f5bb9f121c03808c5676a8078fe583e4649700916001600160a01b0390911690639cd07acb906108019087908790600401610db5565b6020604051808303815f875af115801561081d573d5f5f3e3d5ffd5b505050506040513d601f19601f8201168201806040525081019061043c9190610dc9565b5f5f82156108545750600160f81b610857565b505f5b7f9e7b61f58c47dc699ac88507c4f5bb9f121c03808c5676a8078fe583e464970154604051631391547f60e01b815260048101879052602481018690526001600160f81b0319831660448201527f9e7b61f58c47dc699ac88507c4f5bb9f121c03808c5676a8078fe583e4649700916001600160a01b031690631391547f906064015b6020604051808303815f875af11580156108f6573d5f5f3e3d5ffd5b505050506040513d601f19601f8201168201806040525081019061091a9190610dc9565b9695505050505050565b7f9e7b61f58c47dc699ac88507c4f5bb9f121c03808c5676a8078fe583e46497015460405163196d0b9b60e01b81525f917f9e7b61f58c47dc699ac88507c4f5bb9f121c03808c5676a8078fe583e4649700916001600160a01b039091169063196d0b9b9061099d908890339089908990600401610de0565b6020604051808303815f875af11580156109b9573d5f5f3e3d5ffd5b505050506040513d601f19601f820116820180604052508101906109dd9190610dc9565b8154604051630f8e573b60e21b8152600481018390523360248201529193506001600160a01b031690633e395cec906044015f604051808303815f87803b158015610a26575f5ffd5b505af1158015610a38573d5f5f3e3d5ffd5b50505050509392505050565b5f5f8215610a575750600160f81b610a5a565b505f5b7f9e7b61f58c47dc699ac88507c4f5bb9f121c03808c5676a8078fe583e46497015460405163f77f3f1d60e01b815260048101879052602481018690526001600160f81b0319831660448201527f9e7b61f58c47dc699ac88507c4f5bb9f121c03808c5676a8078fe583e4649700916001600160a01b03169063f77f3f1d906064016108da565b5f6106bb82610af0575f610af3565b60015b60ff165f61078c565b5f5f8215610b0f5750600160f81b610b12565b505f5b7f9e7b61f58c47dc699ac88507c4f5bb9f121c03808c5676a8078fe583e46497015460405163d99882d560e01b815260048101879052602481018690526001600160f81b0319831660448201527f9e7b61f58c47dc699ac88507c4f5bb9f121c03808c5676a8078fe583e4649700916001600160a01b03169063d99882d5906064016108da565b5f7f9e7b61f58c47dc699ac88507c4f5bb9f121c03808c5676a8078fe583e46497008054604051635ca4b5b160e11b8152600481018690526001600160a01b03858116602483015292935091169063b9496b62906044015f604051808303815f87803b158015610c07575f5ffd5b505af1158015610c19573d5f5f3e3d5ffd5b50505050505050565b5f5f83601f840112610c32575f5ffd5b50813567ffffffffffffffff811115610c49575f5ffd5b602083019150836020828501011115610c60575f5ffd5b9250929050565b5f5f5f60408486031215610c79575f5ffd5b83359250602084013567ffffffffffffffff811115610c96575f5ffd5b610ca286828701610c22565b9497909650939450505050565b80356001600160a01b0381168114610cc5575f5ffd5b919050565b5f5f5f5f60608587031215610cdd575f5ffd5b610ce685610caf565b935060208501359250604085013567ffffffffffffffff811115610d08575f5ffd5b610d1487828801610c22565b95989497509550505050565b5f5f5f5f5f60808688031215610d34575f5ffd5b853594506020860135935060408601359250606086013567ffffffffffffffff811115610d5f575f5ffd5b610d6b88828901610c22565b969995985093965092949392505050565b5f60208284031215610d8c575f5ffd5b6106ef82610caf565b60548110610db157634e487b7160e01b5f52602160045260245ffd5b9052565b828152604081016106ef6020830184610d95565b5f60208284031215610dd9575f5ffd5b5051919050565b8481526001600160a01b0384166020820152608060408201525f8351806080840152806020860160a085015e5f60a0828501015260a0601f19601f830116840101915050610e316060830184610d95565b9594505050505056fea164736f6c634300081b000a",
  "linkReferences": {},
  "deployedLinkReferences": {}
}